:1000000045C0000058C0000056C0000054C00000A9
:1000100052C0000051C000004EC000004CC00000A3
:100020004AC0000048C0000046C0000044C00000B4
:1000300042C0000040C000003EC000003CC00000C4
:100040003AC0000038C0000036C0000034C00000D4
:1000500032C0000030C000002EC000002CC00000E4
:100060002AC0000028C0000026C0000024C00000F4
:1000700022C0000020C000001EC000001CC0000004
:100080001AC0000018C0000016C0000011241FBED6
:10009000CFEFD0E1DEBFCDBF11E0A0E0B1E0ECE1F9
:1000A000F2E000E00BBF02C007900D92AC31B10747
:1000B000D9F77AD0B1C0A4CF1F920F920FB60F928A
:1000C00011242F938F939F932FEF8DEE92E0215069
:1000D00080409040E1F700C000000C9916C088B73E
:1000E000806188BF80911A0190911B010A9739F4B1
:1000F0008BE090E090931B0180931A0106C08AE088
:1001000090E090931B0180931A019F918F912F9102
:100110000F900FBE0F901F90189524E022BB35E082
:100120003A95F1F7000094E192BB382F307F35BB50
:1001300022BB3AE03A95F1F700C092BB30E1839FD1
:10014000C001112485BB22BB8FE99FE00197F1F725
:1001500000C000000895CF93DF93EC0102C0219608
:10016000DCDF88818111FBCFDF91CF91089512BA36
:1001700025E02A95F1F7000090E192BB282F207F1F
:1001800025BB12BA2AE02A95F1F700C092BB20E104
:10019000829FC001112485BB12BA8FE99FE00197AD
:1001A000F1F700C0000008958FEF84BB81BB2FEFF3
:1001B00080E792E0215080409040E1F700C00000CD
:1001C00088E2D5DF8CE0D3DF86E0D1DF81E0CFDFCE
:1001D0008FE39FE10197F1F700C0000080E8C7DFDF
:1001E0008BE091E0B8DF80ECC2DF80E091E0B3DF2C
:1001F00012B88AE08ABF80E389BF8FB780688FBF5B
:1002000080911A0190911B010B9719F48CE0AFDFDC
:0C021000F7CF88E0ACDFF4CFF894FFCF0C
:10021C004A55535420446F204954004C696665205C
:0C022C00436F6D70616E696F6E000A0018
:00000001FF
