S00E000042757A7A65722E7372656394
S113000045C0000060C000005EC000005CC000008D
S11300105AC0000058C0000056C0000054C0000080
S113002052C0000050C000004EC000004CC0000090
S11300304AC0000048C0000046C0000044C00000A0
S113004043C0000040C000003EC000003CC00000AF
S11300503AC0000038C0000036C0000034C00000C0
S113006032C0000030C000002EC000002CC00000D0
S11300702AC0000028C0000026C0000024C00000E0
S113008022C0000020C000001EC0000011241FBEBA
S1130090CFEFD0E1DEBFCDBF11E0A0E0B1E0E0EEF4
S11300A0F4E000E00BBF02C007900D92AE37B10739
S11300B0D9F721E0AEE7B1E001C01D92A238B20742
S11300C0E1F737D00BC29CCF1F920F920FB60F925D
S11300D011240BB60F928F939F93EF93FF93E091AC
S11300E07E01F0917F01EB58FE4F808182BF8091A9
S11300F0800190918101019741F488B3806188BBAC
S1130100109281011092800109C088B38F7E88BB50
S113011081E090E09093810180938001FF91EF91C1
S11301209F918F910F900BBE0F900FBE0F901F9059
S113013018958FEF84BB87B3816087BB83E083BF4F
S113014081E087BFE0913F01F0914001EB58FE4F01
S1130150808182BF789480E090E001C0CE01FC01F0
S1130160EE0FFF1FE15CFE4F2081318130937F0150
S113017020937E0120917E0130917F01283031054A
S113018071F4FC013197EE0FFF1FE15CFE4F01900B
S1130190F081E02DE050FF4F208125BB08C0E091A5
S11301A07E01F0917F01E050FF4F208125BBEC01DF
S11301B02196880F991FFC01E75FFE4F60817181D2
S11301C0072E000C880B990B72D04B015C0120E0C8
S11301D030E04AE755E4F7D06B017C0120E030E0E1
S11301E040E85FE332D0882304F120E03FEF4FE79B
S11301F057E4C701B601E3D018169CF420E030E0C0
S113020040E251E4C501B401DED023D006C080E948
S113021091E00197F1F76150710961157105B9F722
S113022009C0C701B60115D002C061E070E0CB017E
S11302300197F1F7FE01EE0FFF1FE15CFE4F808195
S11302409181019609F08ACF86CF6CD008F481E0C1
S1130250089594D088F09F5790F0B92F9927B751FB
S1130260A0F0D1F0660F771F881F991F1AF0BA9576
S1130270C9F712C0B13081F09BD0B1E0089598C0A5
S1130280672F782F8827B85F39F0B93FCCF386956C
S113029077956795B395D9F73EF4909580957095C9
S11302A061957F4F8F4F9F4F0895E89409C097FB46
S11302B03EF490958095709561957F4F8F4F9F4F39
S11302C09923A9F0F92F96E9BB279395F69587957D
S11302D077956795B795F111F8CFFAF4BB0F11F440
S11302E060FF1BC06F5F7F4F8F4F9F4F16C08823E7
S11302F011F096E911C0772321F09EE8872F762F1D
S113030005C0662371F096E8862F70E060E02AF05D
S11303109A95660F771F881FDAF7880F9695879549
S113032097F90895990F0008550FAA0BE0E8FEEF1E
S113033016161706E807F907C0F012161306E407A5
S1130340F50798F0621B730B840B950B39F40A269E
S113035061F0232B242B252B21F408950A2609F47C
S1130360A140A6958FEF811D811D089557FD9058DA
S1130370440F551F59F05F3F71F04795880F97FB65
S1130380991F61F09F3F79F087950895121613061F
S11303901406551FF2CF4695F1DF08C0161617064E
S11303A01806991FF1CF8695710561050894089583
S11303B0E894BB2766277727CB0197F90895B2DF26
S11303C008F48FEF08950BD078C069D028F06ED070
S11303D018F0952309F05AC05FC01124EACFC6DF94
S11303E0A0F3959FD1F3950F50E0551F629FF00144
S11303F0729FBB27F00DB11D639FAA27F00DB11D9D
S1130400AA1F649F6627B00DA11D661F829F222725
S1130410B00DA11D621F739FB00DA11D621F839FAC
S1130420A00D611D221F749F3327A00D611D231F82
S1130430849F600D211D822F762F6A2F11249F57D0
S113044050408AF0E1F088234AF0EE0FFF1FBB1FF3
S1130450661F771F881F91505040A9F79E3F510592
S113046070F014C0A6CF5F3FECF3983EDCF38695A2
S113047077956795B795F795E7959F5FC1F7FE2B3D
S1130480880F911D9695879597F9089597F99F6719
S113049080E870E060E008959FEF80EC0895002408
S11304A00A941616170618060906089500240A94D5
S11304B012161306140605060895092E0394000C5B
S11304C011F4882352F0BB0F40F4BF2B11F460FFEA
S11304D004C06F5F7F4F8F4F9F4F0895F894FFCFF5
S11304E00103070F1F3F7FFF00710238010100382D
S11304F001380138017102710238013801380138BC
S1130500017102D4019C00380138013801380171AD
S11305100271023801380138013801710271020494
S113052000020008000200040002000000010002B2
S1130530000100000002000400070004000700049A
S1130540000700040002000400010003000200018F
S1110550000000FFFF112B424D61728189FFF4
S9030000FC
