S0110000424C5545544F4F54482E737265635D
S113000045C0000058C0000056C0000054C00000A5
S113001052C0000050C000004EC000004CC00000A0
S11300204AC0000048C0000046C0000044C00000B0
S113003042C0000040C000003EC000003CC00000C0
S11300403AC0000038C0000036C0000034C00000D0
S113005032C0000030C000002EC000002CC00000E0
S11300602AC0000028C0000026C0000024C00000F0
S113007022C0000020C000001EC000001CC0000000
S11300801AC0000018C0000016C0000011241FBED2
S1130090CFEFD0E1DEBFCDBF11E0A0E0B1E0E2E1FF
S11300A0FAE000E00BBF02C007900D92AA31B1073D
S11300B0D9F70CD2ACC4A4CF88E180939A0086E02F
S11300C080939D001092980088E080939900089591
S11300D090919B0095FFFCCF80939C0008958091A4
S11300E09B008823E4F780919C000895CF93DF93CD
S11300F0EC0102C02196ECDF88818111FBCFDF91F6
S1130100CF9108952F923F924F925F926F927F9278
S11301108F929F92AF92BF92CF92DF92EF92FF9213
S11301200F931F93CF93DF93CDB7DEB764970FB6CA
S1130130F894DEBF0FBECDBF1B019C01220F331FFD
S113014088EE93E0B9013CD47A836983B901330F13
S1130150880B990B1ED39B01AC0160E070E08AE729
S113016094E47CD26B017C0129813A81B901330F7B
S1130170880B990B0ED36D837E838F8398879B01A5
S1130180AC01C701B60101D220E030E04AE754E4F3
S1130190B4D3CCD28B0180E090E09C8B8B8B77C165
S11301A083B1806183B920E030E04AE755E46D8192
S11301B07E818F819885A1D36B017C0120E030E0A2
S11301C040E85FE347D2882314F120E03FEF4FE794
S11301D057E4C701B6018DD31816ACF420E030E023
S11301E040E251E46D817E818F81988586D3A3D2CC
S11301F006C080E991E00197F1F76150710961153A
S11302007105B9F709C0C701B60195D202C061E012
S113021070E0CB010197F1F7B801012E000C880BB7
S1130220990BB7D22B013C012BEA3AEA4AEA50E493
S113023064D34B015C0120E030E040E850E4C301AA
S1130240B2015BD369837A838B839C8320E030E0A3
S113025040E85FE3C501B401FDD188230CF46AC012
S113026020E03FEF4FE757E469817A818B819C81DD
S113027040D318160CF047C020E030E04AE754E4BD
S1130280C301B201EBD16F87788B898B9A8B20E005
S113029030E04AE755E431D36B877C878D879E87AE
S11302A020E030E040E85FE3D5D1882334F120E05A
S11302B03FEF4FE757E46B857C858D859E8519D389
S11302C01816ACF420E030E040E251E46F85788900
S11302D089899A8912D32FD206C080E991E00197C7
S11302E0F1F76150710961157105B9F725C06B8586
S11302F07C858D859E851FD202C061E070E0CB01B4
S11303000197F1F719C020E030E04FE753E4C5014D
S1130310B401EFD218164CF469817A818B819C81E7
S11303200AD2CB010197F1F70AC0C501B40103D287
S11303306A8702C091E09A878A858A95F1F783B12A
S11303408F7E83B920E030E040E85FE3C701B60167
S113035081D1882314F120E03FEF4FE757E4C70130
S1130360B601C7D21816ACF420E030E040E251E404
S11303706D817E818F819885C0D2DDD106C080E9F0
S113038091E00197F1F76150710961157105B9F7B1
S113039009C0C701B601CFD102C061E070E0CB0152
S11303A00197F1F720E030E040E85FE3C501B401D4
S11303B051D188230CF460C020E03FEF4FE757E4AD
S11303C069817A818B819C8194D218160CF03DC08E
S11303D020E030E04AE754E4C301B2013FD14B01CD
S11303E05C0120E030E04AE755E487D26B017C01F0
S11303F020E030E040E85FE32DD1882304F120E0E1
S11304003FEF4FE757E4C701B60173D218169CF4C7
S113041020E030E040E251E4C501B4016ED28BD15A
S113042006C080E991E00197F1F761507109611507
S11304307105B9F723C0C701B6017DD102C061E0DF
S113044070E0CB010197F1F719C020E030E04FE7ED
S113045053E4C501B4014DD218164CF469817A8174
S11304608B819C8168D1CB010197F1F70AC0C5014A
S1130470B40161D1698702C091E0998789858A9521
S1130480F1F72B893C892F5F3F4F3C8B2B8B8B895A
S11304909C89821593050CF483CE64960FB6F89468
S11304A0DEBF0FBECDBFDF91CF911F910F91FF90A3
S11304B0EF90DF90CF90BF90AF909F908F907F9000
S11304C06F905F904F903F902F90089580E182B994
S11304D0F3DD05DEC82FFCDDC13349F480E091E093
S11304E005DE6BE072E08BE092E00CDEF2CFC2330B
S11304F049F483E091E0FADD6BE472E08BE492E08E
S113050001DEE7CFC33349F486E091E0EFDD63E930
S113051072E083E992E0F6DDDCCFC43349F489E08C
S113052091E0E4DD6CEB72E08CEB92E0EBDDD1CF9B
S1130530C53349F48CE091E0D9DD60E173E080E1FA
S113054093E0E0DDC6CFC63349F480E191E0CEDD2F
S113055060E773E080E793E0D5DDBBCFC73349F4B0
S113056083E191E0C3DD6CED73E08CED93E0CADDD3
S1130570B0CFC83309F0ADCF86E191E0B7DD67E1D4
S113058074E087E194E0BEDDA4CF5058BB27AA27CE
S11305900ED075C166D130F06BD120F031F49F3F9D
S11305A011F41EF45BC10EF4E095E7FB51C1E92F91
S11305B077D180F3BA17620773078407950718F099
S11305C071F49EF58FC10EF4E0950B2EBA2FA02D79
S11305D00B01B90190010C01CA01A0011124FF27EC
S11305E0591B99F0593F50F4503E68F11A16F040E7
S11305F0A22F232F342F4427585FF3CF46953795E6
S11306002795A795F0405395C9F77EF41F16BA0BAA
S1130610620B730B840BBAF09150A1F0FF0FBB1F58
S1130620661F771F881FC2F70EC0BA0F621F731FA1
S1130630841F48F4879577956795B795F7959E3FFE
S113064008F0B3CF9395880F08F09927EE0F97958C
S113065087950895D9D008F481E008950CD00FC18E
S113066007D140F0FED030F021F45F3F19F0F0C024
S1130670511139C1F3C014D198F39923C9F3552307
S1130680B1F3951B550BBB27AA2762177307840781
S113069038F09F5F5F4F220F331F441FAA1FA9F337
S11306A033D00E2E3AF0E0E830D091505040E69529
S11306B0001CCAF729D0FE2F27D0660F771F881F8A
S11306C0BB1F261737074807AB07B0E809F0BB0B79
S11306D0802DBF01FF2793585F4F2AF09E3F51059D
S11306E068F0B6C000C15F3FECF3983EDCF386953A
S11306F077956795B795F7959F5FC9F7880F911D13
S11307009695879597F90895E1E0660F771F881FFE
S1130710BB1F621773078407BA0720F0621B730BB1
S1130720840BBA0BEE1F88F7E095089504D0689403
S1130730B111D9C00895BCD088F09F5790F0B92F5B
S11307409927B751A0F0D1F0660F771F881F991F22
S11307501AF0BA95C9F712C0B13081F0C3D0B1E034
S11307600895C0C0672F782F8827B85F39F0B93F44
S1130770CCF3869577956795B395D9F73EF4909524
S11307808095709561957F4F8F4F9F4F0895E894A2
S113079009C097FB3EF490958095709561957F4FC5
S11307A08F4F9F4F9923A9F0F92F96E9BB27939573
S11307B0F695879577956795B795F111F8CFFAF483
S11307C0BB0F11F460FF1BC06F5F7F4F8F4F9F4FB4
S11307D016C0882311F096E911C0772321F09EE812
S11307E0872F762F05C0662371F096E8862F70E078
S11307F060E02AF09A95660F771F881FDAF7880F52
S11308009695879597F90895990F0008550FAA0BA7
S1130810E0E8FEEF16161706E807F907C0F012160F
S11308201306E407F50798F0621B730B840B950B12
S113083039F40A2661F0232B242B252B21F4089567
S11308400A2609F4A140A6958FEF811D811D089504
S113085097F99F6780E870E060E008959FEF80EC6F
S1130860089500240A941616170618060906089512
S113087000240A9412161306140605060895092E78
S11308800394000C11F4882352F0BB0F40F4BF2BE7
S113089011F460FF04C06F5F7F4F8F4F9F4F089527
S11308A057FD9058440F551F59F05F3F71F047951D
S11308B0880F97FB991F61F09F3F79F08795089502
S11308C0121613061406551FF2CF4695F1DF08C021
S11308D0161617061806991FF1CF8695710561053E
S11308E008940895E894BB2766277727CB0197F9E6
S11308F008958ADF08F48FEF08950BD0C0CFB1DFDD
S113090028F0B6DF18F0952309F0A2CFA7CF112461
S1130910EACFC6DFA0F3959FD1F3950F50E0551FA2
S1130920629FF001729FBB27F00DB11D639FAA2740
S1130930F00DB11DAA1F649F6627B00DA11D661F8F
S1130940829F2227B00DA11D621F739FB00DA11DB0
S1130950621F839FA00D611D221F749F3327A00D6A
S1130960611D231F849F600D211D822F762F6A2F06
S113097011249F5750408AF0E1F088234AF0EE0F8B
S1130980FF1FBB1F661F771F881F91505040A9F798
S11309909E3F510570F05CCFA6CF5F3FECF3983ECD
S11309A0DCF3869577956795B795F795E7959F5FFF
S11309B0C1F7FE2B880F911D9695879597F9089599
S11309C097FB072E16F4009406D077FD08D00BD0C1
S11309D007FC05D03EF4909581959F4F089570953E
S11309E061957F4F0895AA1BBB1B51E107C0AA1F45
S11309F0BB1FA617B70710F0A61BB70B881F991FBC
S1130A005A95A9F780959095BC01CD010895F89465
S1050A10FFCF12
S1130A12446F005245004D4900464100534F4C007B
S10D0A2252410053490044444F00C0
S9030000FC
