S00F0000544845524D414C2E7372656308
S113000045C0000060C000005EC000005CC000008D
S11300105AC0000058C0000056C0000054C0000080
S113002052C0000050C000004EC000004CC0000090
S11300304AC0000048C0000046C0000044C00000A0
S113004042C0000040C000003EC000003CC00000B0
S11300503AC0000038C0000036C0000034C00000C0
S113006032C0000030C000002EC000002CC00000D0
S11300702AC0000028C0000026C0000024C00000E0
S113008022C0000020C000001EC0000011241FBEBA
S1130090CFEFD0E1DEBFCDBF11E0A0E0B1E0E4E9F5
S11300A0F3E000E00BBF02C007900D92AC30B10743
S11300B0D9F721E0ACE0B1E001C01D92AE30B20747
S11300C0E1F72FD165C19CCF8FEF84BB809364008F
S11300D0E1E7F0E080818C7F808380EC8093700086
S11300E0089594EA90937400909174009923E4F72E
S11300F090917100987F9830B9F790E990937300CC
S113010094E890937400909174009923E4F790918B
S11301107100987F9831B9F78093730084E88093D5
S11301207400809174008823E4F780917100887FC3
S11301308832B9F784EA809374008091740088232C
S1130140E4F780917100887F8031B9F781E9809369
S1130150730084E880937400809174008823E4F72A
S113016080917100887F8034B9F784EC80937400A7
S1130170809174008823E4F780917100887F803532
S1130180B9F79091730084E88093740080917400AF
S11301908823E4F780917100887F8835B9F720912E
S11301A0730084E9809374008091740084FDFCCF13
S11301B0892F90E0982F8827822B089587B3806138
S11301C087BB80910C0190910D01892B51F088B36C
S11301D0806188BB8FE193E00197F1F700C00000D4
S11301E0089588B38F7E88BB08950F931F93CF9390
S11301F0DF93CDB7DEB768970FB6F894DEBF0FBEB6
S1130200CDBFAC018CE0E0E0F1E0DE01119601909D
S11302100D928A95E1F781E08D8782E08E8784E0F4
S11302208F8788E0888B55232CF08AE090E0988FA4
S11302308F8B07C08BE090E0988F8F8B5195419501
S113024051099A0122273F77232F330F330BEAE01A
S1130250F0E0C901BF0175D08C01CB01BF0171D0A1
S11302609E8B8D8B1C8B0B8B47FF03C085E090E02E
S113027002C080E090E09A8B898B245131092A30A6
S1130280310570F081E090E020910C0130910D0176
S1130290232B11F080E090E090930D0180930C01EA
S11302A08DDF80E090E02FC0FC01EE0FFF1F21E006
S11302B030E02C0F3D1FE20FF31F0088F189E02D81
S11302C0E20FF31F208125BBEDE0F0E0EC0FFD1FF2
S11302D0E80FF91F2081209365008130910519F4FE
S11302E025B3206825BB80FF07C0EFE3FFE131970A
S11302F0F1F700C0000006C0EFEDFEE23197F1F720
S113030000C0000001968430910574F268960FB61F
S1130310F894DEBF0FBECDBFDF91CF911F910F9137
S11303200895D2DEC0E0D0E008C0209719F480E040
S1130330D8DE8C01C80159DF2196CE31D105ACF34A
S1130340F1CF97FB072E16F4009406D077FD08D062
S11303500BD007FC05D03EF4909581959F4F0895EE
S1130360709561957F4F0895AA1BBB1B51E107C08F
S1130370AA1FBB1FA617B70710F0A61BB70B881F31
S1130380991F5A95A9F780959095BC01CD010895C0
S1070390F894FFCF0B
S10F03943F065B4F666D7C077F670040EE
S9030000FC
