:1000000045C0000058C0000056C0000054C00000A9
:1000100052C0000051C0000073C000004CC000007E
:100020004AC0000048C0000046C0000044C00000B4
:1000300042C0000040C000003EC000003CC00000C4
:100040003AC0000038C0000036C0000034C00000D4
:1000500032C0000030C000002EC000002CC00000E4
:100060002AC0000028C0000026C0000024C00000F4
:1000700022C0000020C000001EC000001CC0000004
:100080001AC0000018C0000016C0000011241FBED6
:10009000CFEFD0E1DEBFCDBF11E0A0E0B1E0E0E9FD
:1000A000F1E000E00BBF02C007900D92A230B10753
:1000B000D9F74AD06BC0A4CF1F920F920FB60F9200
:1000C00011242F938F939F932FEF80E792E021507D
:1000D00080409040E1F700C000000C9909C088B74B
:1000E000806188BF80EB90E09093010180930001D4
:1000F0009F918F912F910F900FBE0F901F90189589
:100100001F920F920FB60F9211242F938F939F93EC
:100110002FEF80E792E0215080409040E1F700C04F
:1001200000000D9909C088B7806288BF80E790E021
:1001300090930101809300019F918F912F910F90D7
:100140000FBE0F901F90189580EF87BB12B883E009
:10015000809364008AE08ABF80E389BF78948091AD
:10016000000190910101803B910521F481E0809391
:10017000650008C08037910521F482E08093650016
:1001800001C015BA8091000188BBE9CFF894FFCF78
:0201900030003D
:00000001FF
