:1000000045C0000060C000005EC000005CC0000091
:100010005AC0000062C0000056C0000054C000007A
:1000200052C0000050C000004EC000004CC0000094
:100030004AC0000048C0000046C0000044C00000A4
:1000400042C0000040C000003EC000003CC00000B4
:100050003AC0000038C0000036C0000034C00000C4
:1000600032C0000030C000002EC000002CC00000D4
:100070002AC0000028C0000026C0000024C00000E4
:1000800022C0000020C000001EC0000011241FBEBE
:10009000CFEFD0E1DEBFCDBF11E0A0E0B1E0EEEBED
:1000A000F3E000E00BBF02C007900D92A431B1074E
:1000B000D9F721E0A4E1B1E001C01D92A631B20759
:1000C000E1F7F7D07AC19CCF82E08ABF80E189BF97
:1000D0008FB780688FBF789408951F920F920FB6E4
:1000E0000F9211242F938F939F932FEF80E792E02D
:1000F000215080409040E1F700C0000081B1807144
:1001000081B9811117C088B7806188BF80911101C2
:10011000909112018436910539F48EE690E0909327
:1001200012018093110106C084E690E090931201C1
:10013000809311019F918F912F910F900FBE0F907F
:100140001F90189583E08EBD8BB38F7B8BBB85E3AF
:100150008A95F1F700008BB380648BBB85E38A95A9
:10016000F1F700008BB38F7B8BBBCF9BFECF1DBC09
:100170001CBCCF99FECF1EBC2CB53DB5220F331F42
:10018000220F331F36952795A4E5B1E0F3D028EE72
:1001900033E040E050E0CCD0C901089524E022BB18
:1001A00035E03A95F1F7000094E192BB382F307FAB
:1001B00035BB22BB3AE03A95F1F700C092BB30E183
:1001C000839FC001112485BB22BB8FE99FE001976B
:1001D000F1F700C000000895CF93DF93EC0102C057
:1001E0002196DCDF88818111FBCFDF91CF910895CB
:1001F000CF93DF93EC0168EE73E087D0CB012AE068
:1002000030E0B90182D0E0E0F1E0805D8083CE0192
:1002100064E670E07AD0CB01B90177D0805D81834C
:10022000CE01B90172D0482FCB01B9016ED0805DEB
:1002300082838EE28383405D44831582CF01CCDFCD
:10024000DF91CF91089512BA25E02A95F1F70000C9
:1002500090E192BB282F207F25BB12BA2AE02A9575
:10026000F1F700C092BB20E1829FC001112485BB41
:1002700012BA8FE99FE00197F1F700C000000895DE
:100280002FEF80E792E0215080409040E1F700C0DE
:10029000000015BA88E2D7DF8CE0D5DF86E0D3DF37
:1002A00081E0D1DF8FE39FE10197F1F700C000000B
:1002B00008958AB38F7780648ABB8FEF84BB81BB3C
:1002C00012B802DFDDDF8CE0BEDF80E8BCDF8091AA
:1002D0001101909112018436910571F42FEF81EE96
:1002E00094E0215080409040E1F700C000002ADFF8
:1002F000909315018093140186E091E06DDF809169
:1003000014019091150174DFDECF97FB072E16F4D0
:10031000009406D077FD08D03CD007FC05D03EF411
:10032000909581959F4F0895709561957F4F0895A1
:10033000A1E21A2EAA1BBB1BFD010DC0AA1FBB1FE9
:10034000EE1FFF1FA217B307E407F50720F0A21B5B
:10035000B30BE40BF50B661F771F881F991F1A94C8
:1003600069F760957095809590959B01AC01BD01F2
:10037000CF010895A29FB001B39FC001A39F700D4C
:10038000811D1124911DB29F700D811D1124911D9D
:100390000895AA1BBB1B51E107C0AA1FBB1FA617CC
:1003A000B70710F0A61BB70B881F991F5A95A9F71E
:0E03B00080959095BC01CD010895F894FFCF83
:1003BE003030302E300044697374616E63653A20BC
:0403CE0000640000C7
:00000001FF
