:1000000045C000004BC0000049C0000047C00000D0
:1000100045C0000043C0000041C000003FC00000D8
:100020003DC000003BC0000039C0000037C00000E8
:1000300035C0000033C0000031C000002FC00000F8
:100040002DC000002BC0000029C0000027C0000008
:1000500025C0000023C0000021C000001FC0000018
:100060001DC000001BC0000019C0000017C0000028
:1000700015C0000013C0000011C000000FC0000038
:100080000DC000000BC0000009C0000011241FBEFD
:10009000CFEFD0E1DEBFCDBF14D08FC0B1CF88E1AC
:1000A0008AB986E0809395001092900087E689B91E
:1000B00008955D9BFECF8CB908955F9BFECF8CB1F8
:1000C0000895EDDF8EE3F5DF8EE3F3DFF6DFD82E64
:1000D000F0DF8DE0EEDF8AE0ECDF8FEC8D0D893014
:1000E00088F139C02D2D30E020533109C29FC00165
:1000F000C39F900DD29F900D11246AE070E036D01E
:100100007B0120E3E20EF11C8C01005D1F4F8D2D61
:10011000D0DF80E2CEDF88E7CCDF80E2CADF8C2F41
:10012000805DC7DF80E2C5DF8DE3C3DF80E2C1DF32
:100130008E2DBFDF802FBDDF8DE0BBDF8AE0B9DF12
:10014000219602C0C1E0D0E0CA30D1050CF4CACF7C
:100150008AE0AFDF08C08DE0D81203C08AE0A9DFD3
:1001600002C08D2DA6DF8AE0A4DFACCF97FB072E5F
:1001700016F4009406D077FD08D00BD007FC05D00C
:100180003EF4909581959F4F0895709561957F4FAE
:100190000895AA1BBB1B51E107C0AA1FBB1FA617CE
:1001A000B70710F0A61BB70B881F991F5A95A9F720
:0E01B00080959095BC01CD010895F894FFCF85
:00000001FF
