S00E00005357495443482E7372656344
S113000045C0000053C0000051C000004FC00000B4
S11300104DC000004BC0000049C0000047C00000B4
S113002045C0000043C0000041C000003FC00000C4
S11300303DC000003BC0000039C0000037C00000D4
S113004035C0000033C0000031C000002FC00000E4
S11300502DC000002BC0000029C0000027C00000F4
S113006025C0000023C0000021C000001FC0000004
S11300701DC000001BC0000019C0000017C0000014
S113008015C0000013C0000011C0000011241FBEE1
S1130090CFEFD0E1DEBFCDBF21E0A0E0B1E001C0F1
S11300A01D92A030B207E1F719D020C0A9CF80E497
S11300B087B987E886B9089586B1806486B9349B88
S11300C0FECF24B185B190E0982F8827822B089524
S11300D08635914010F48FEF8BBB08958FEF8ABB68
S11300E010926100E4DFE8DFF3DFFDCFF894FFCF87
S9030000FC
